{
  "_format": "hh-sol-artifact-1",
  "contractName": "LazyMarketplace",
  "sourceName": "contracts/LazyMaketplace.sol",
  "abi": [
    {
      "inputs": [
        {
          "internalType": "address",
          "name": "_payee",
          "type": "address"
        },
        {
          "internalType": "uint256",
          "name": "_percent",
          "type": "uint256"
        }
      ],
      "stateMutability": "nonpayable",
      "type": "constructor"
    },
    {
      "anonymous": false,
      "inputs": [
        {
          "indexed": false,
          "internalType": "address",
          "name": "_address",
          "type": "address"
        },
        {
          "indexed": false,
          "internalType": "uint256",
          "name": "_id",
          "type": "uint256"
        },
        {
          "indexed": false,
          "internalType": "address",
          "name": "_seller",
          "type": "address"
        },
        {
          "indexed": false,
          "internalType": "address",
          "name": "_maxBidder",
          "type": "address"
        },
        {
          "indexed": false,
          "internalType": "uint256",
          "name": "_maxBid",
          "type": "uint256"
        },
        {
          "indexed": false,
          "internalType": "uint256",
          "name": "_amount",
          "type": "uint256"
        },
        {
          "indexed": false,
          "internalType": "bool",
          "name": "_success",
          "type": "bool"
        }
      ],
      "name": "AuctionEnded",
      "type": "event"
    },
    {
      "anonymous": false,
      "inputs": [
        {
          "indexed": false,
          "internalType": "address",
          "name": "_address",
          "type": "address"
        },
        {
          "indexed": false,
          "internalType": "uint256",
          "name": "_id",
          "type": "uint256"
        },
        {
          "indexed": false,
          "internalType": "address",
          "name": "_seller",
          "type": "address"
        },
        {
          "indexed": false,
          "internalType": "address",
          "name": "_bidder",
          "type": "address"
        },
        {
          "indexed": false,
          "internalType": "uint256",
          "name": "_value",
          "type": "uint256"
        }
      ],
      "name": "BidAdded",
      "type": "event"
    },
    {
      "anonymous": false,
      "inputs": [
        {
          "indexed": false,
          "internalType": "address",
          "name": "_address",
          "type": "address"
        },
        {
          "indexed": false,
          "internalType": "uint256",
          "name": "_id",
          "type": "uint256"
        },
        {
          "indexed": false,
          "internalType": "address",
          "name": "_seller",
          "type": "address"
        },
        {
          "indexed": false,
          "internalType": "uint256",
          "name": "_amount",
          "type": "uint256"
        },
        {
          "indexed": false,
          "internalType": "uint256",
          "name": "_price",
          "type": "uint256"
        },
        {
          "indexed": false,
          "internalType": "address",
          "name": "_buyer",
          "type": "address"
        }
      ],
      "name": "Bought",
      "type": "event"
    },
    {
      "anonymous": false,
      "inputs": [
        {
          "indexed": false,
          "internalType": "address",
          "name": "_address",
          "type": "address"
        },
        {
          "indexed": false,
          "internalType": "uint256",
          "name": "_id",
          "type": "uint256"
        },
        {
          "indexed": false,
          "internalType": "address",
          "name": "_seller",
          "type": "address"
        },
        {
          "indexed": false,
          "internalType": "uint256",
          "name": "_amount",
          "type": "uint256"
        },
        {
          "indexed": false,
          "internalType": "uint256",
          "name": "_price",
          "type": "uint256"
        },
        {
          "indexed": false,
          "internalType": "enum Exchange.SaleType",
          "name": "_type",
          "type": "uint8"
        },
        {
          "indexed": false,
          "internalType": "uint256",
          "name": "_endTime",
          "type": "uint256"
        }
      ],
      "name": "ItemUpdated",
      "type": "event"
    },
    {
      "anonymous": false,
      "inputs": [
        {
          "indexed": false,
          "internalType": "address",
          "name": "_address",
          "type": "address"
        },
        {
          "indexed": false,
          "internalType": "uint256",
          "name": "_auctionId",
          "type": "uint256"
        },
        {
          "indexed": false,
          "internalType": "address",
          "name": "_seller",
          "type": "address"
        },
        {
          "indexed": false,
          "internalType": "address",
          "name": "_maxBidder",
          "type": "address"
        },
        {
          "indexed": false,
          "internalType": "uint256",
          "name": "_maxBid",
          "type": "uint256"
        },
        {
          "indexed": false,
          "internalType": "uint256",
          "name": "_amount",
          "type": "uint256"
        },
        {
          "indexed": false,
          "internalType": "bool",
          "name": "_success",
          "type": "bool"
        },
        {
          "indexed": false,
          "internalType": "uint256",
          "name": "_tokenId",
          "type": "uint256"
        }
      ],
      "name": "LazyAuctionEnded",
      "type": "event"
    },
    {
      "anonymous": false,
      "inputs": [
        {
          "indexed": false,
          "internalType": "address",
          "name": "_address",
          "type": "address"
        },
        {
          "indexed": false,
          "internalType": "uint256",
          "name": "_auctionId",
          "type": "uint256"
        },
        {
          "indexed": false,
          "internalType": "address",
          "name": "_seller",
          "type": "address"
        },
        {
          "indexed": false,
          "internalType": "address",
          "name": "_bidder",
          "type": "address"
        },
        {
          "indexed": false,
          "internalType": "uint256",
          "name": "_value",
          "type": "uint256"
        }
      ],
      "name": "LazyBidAdded",
      "type": "event"
    },
    {
      "anonymous": false,
      "inputs": [
        {
          "indexed": false,
          "internalType": "address",
          "name": "_bidder",
          "type": "address"
        },
        {
          "indexed": false,
          "internalType": "uint256",
          "name": "_value",
          "type": "uint256"
        }
      ],
      "name": "Withdrawn",
      "type": "event"
    },
    {
      "inputs": [
        {
          "internalType": "uint256",
          "name": "",
          "type": "uint256"
        }
      ],
      "name": "auctionExists",
      "outputs": [
        {
          "internalType": "bool",
          "name": "",
          "type": "bool"
        }
      ],
      "stateMutability": "view",
      "type": "function"
    },
    {
      "inputs": [
        {
          "internalType": "address",
          "name": "",
          "type": "address"
        },
        {
          "internalType": "uint256",
          "name": "",
          "type": "uint256"
        },
        {
          "internalType": "address",
          "name": "",
          "type": "address"
        }
      ],
      "name": "auctionItems",
      "outputs": [
        {
          "internalType": "uint256",
          "name": "amount",
          "type": "uint256"
        },
        {
          "internalType": "uint256",
          "name": "maxBid",
          "type": "uint256"
        },
        {
          "internalType": "address",
          "name": "maxBidder",
          "type": "address"
        },
        {
          "internalType": "uint256",
          "name": "endTime",
          "type": "uint256"
        },
        {
          "internalType": "bool",
          "name": "ended",
          "type": "bool"
        }
      ],
      "stateMutability": "view",
      "type": "function"
    },
    {
      "inputs": [
        {
          "internalType": "address",
          "name": "_address",
          "type": "address"
        },
        {
          "internalType": "uint256",
          "name": "_id",
          "type": "uint256"
        },
        {
          "internalType": "address",
          "name": "_seller",
          "type": "address"
        }
      ],
      "name": "bid",
      "outputs": [],
      "stateMutability": "payable",
      "type": "function"
    },
    {
      "inputs": [
        {
          "internalType": "address",
          "name": "_tokenAddress",
          "type": "address"
        },
        {
          "internalType": "uint256",
          "name": "_amount",
          "type": "uint256"
        },
        {
          "internalType": "address",
          "name": "_creator",
          "type": "address"
        },
        {
          "internalType": "uint256",
          "name": "_minBid",
          "type": "uint256"
        },
        {
          "internalType": "uint256",
          "name": "_endTime",
          "type": "uint256"
        },
        {
          "internalType": "string",
          "name": "_uri",
          "type": "string"
        },
        {
          "internalType": "uint256",
          "name": "_auctionId",
          "type": "uint256"
        },
        {
          "internalType": "bytes",
          "name": "_signature",
          "type": "bytes"
        }
      ],
      "name": "bidLazy",
      "outputs": [],
      "stateMutability": "payable",
      "type": "function"
    },
    {
      "inputs": [
        {
          "internalType": "address",
          "name": "_address",
          "type": "address"
        },
        {
          "internalType": "uint256",
          "name": "_id",
          "type": "uint256"
        },
        {
          "internalType": "address",
          "name": "_seller",
          "type": "address"
        },
        {
          "internalType": "uint256",
          "name": "_amount",
          "type": "uint256"
        }
      ],
      "name": "buy",
      "outputs": [],
      "stateMutability": "payable",
      "type": "function"
    },
    {
      "inputs": [
        {
          "internalType": "address",
          "name": "_tokenAddress",
          "type": "address"
        },
        {
          "internalType": "uint256",
          "name": "_amount",
          "type": "uint256"
        },
        {
          "internalType": "address",
          "name": "_creator",
          "type": "address"
        },
        {
          "internalType": "uint256",
          "name": "_unitPrice",
          "type": "uint256"
        },
        {
          "internalType": "string",
          "name": "_uri",
          "type": "string"
        },
        {
          "internalType": "bytes",
          "name": "_signature",
          "type": "bytes"
        },
        {
          "internalType": "uint256",
          "name": "_buyAmount",
          "type": "uint256"
        }
      ],
      "name": "buyLazy",
      "outputs": [],
      "stateMutability": "payable",
      "type": "function"
    },
    {
      "inputs": [
        {
          "internalType": "address",
          "name": "_address",
          "type": "address"
        },
        {
          "internalType": "uint256",
          "name": "_id",
          "type": "uint256"
        },
        {
          "internalType": "address",
          "name": "_seller",
          "type": "address"
        }
      ],
      "name": "endAuction",
      "outputs": [],
      "stateMutability": "nonpayable",
      "type": "function"
    },
    {
      "inputs": [
        {
          "internalType": "address",
          "name": "_tokenAddress",
          "type": "address"
        },
        {
          "internalType": "uint256",
          "name": "_amount",
          "type": "uint256"
        },
        {
          "internalType": "address",
          "name": "_creator",
          "type": "address"
        },
        {
          "internalType": "uint256",
          "name": "_minBid",
          "type": "uint256"
        },
        {
          "internalType": "uint256",
          "name": "_endTime",
          "type": "uint256"
        },
        {
          "internalType": "string",
          "name": "_uri",
          "type": "string"
        },
        {
          "internalType": "uint256",
          "name": "_auctionId",
          "type": "uint256"
        },
        {
          "internalType": "bytes",
          "name": "_signature",
          "type": "bytes"
        }
      ],
      "name": "endAuctionLazy",
      "outputs": [],
      "stateMutability": "payable",
      "type": "function"
    },
    {
      "inputs": [
        {
          "internalType": "address",
          "name": "",
          "type": "address"
        },
        {
          "internalType": "uint256",
          "name": "",
          "type": "uint256"
        },
        {
          "internalType": "address",
          "name": "",
          "type": "address"
        }
      ],
      "name": "fixedItems",
      "outputs": [
        {
          "internalType": "uint256",
          "name": "amount",
          "type": "uint256"
        },
        {
          "internalType": "uint256",
          "name": "price",
          "type": "uint256"
        }
      ],
      "stateMutability": "view",
      "type": "function"
    },
    {
      "inputs": [
        {
          "internalType": "uint256",
          "name": "",
          "type": "uint256"
        }
      ],
      "name": "lazyAuctions",
      "outputs": [
        {
          "internalType": "uint256",
          "name": "amount",
          "type": "uint256"
        },
        {
          "internalType": "uint256",
          "name": "maxBid",
          "type": "uint256"
        },
        {
          "internalType": "address",
          "name": "maxBidder",
          "type": "address"
        },
        {
          "internalType": "uint256",
          "name": "endTime",
          "type": "uint256"
        },
        {
          "internalType": "bool",
          "name": "ended",
          "type": "bool"
        }
      ],
      "stateMutability": "view",
      "type": "function"
    },
    {
      "inputs": [],
      "name": "marketPayee",
      "outputs": [
        {
          "internalType": "address",
          "name": "",
          "type": "address"
        }
      ],
      "stateMutability": "view",
      "type": "function"
    },
    {
      "inputs": [],
      "name": "marketPercent",
      "outputs": [
        {
          "internalType": "uint256",
          "name": "",
          "type": "uint256"
        }
      ],
      "stateMutability": "view",
      "type": "function"
    },
    {
      "inputs": [
        {
          "internalType": "address",
          "name": "",
          "type": "address"
        }
      ],
      "name": "pendingWithdraws",
      "outputs": [
        {
          "internalType": "uint256",
          "name": "",
          "type": "uint256"
        }
      ],
      "stateMutability": "view",
      "type": "function"
    },
    {
      "inputs": [
        {
          "internalType": "address",
          "name": "_address",
          "type": "address"
        },
        {
          "internalType": "uint256",
          "name": "_id",
          "type": "uint256"
        },
        {
          "internalType": "uint256",
          "name": "_amount",
          "type": "uint256"
        },
        {
          "internalType": "uint256",
          "name": "_minPrice",
          "type": "uint256"
        },
        {
          "internalType": "uint256",
          "name": "_endTime",
          "type": "uint256"
        }
      ],
      "name": "putOnAuction",
      "outputs": [],
      "stateMutability": "nonpayable",
      "type": "function"
    },
    {
      "inputs": [
        {
          "internalType": "address",
          "name": "_address",
          "type": "address"
        },
        {
          "internalType": "uint256",
          "name": "_id",
          "type": "uint256"
        },
        {
          "internalType": "uint256",
          "name": "_amount",
          "type": "uint256"
        },
        {
          "internalType": "uint256",
          "name": "_price",
          "type": "uint256"
        }
      ],
      "name": "putOnSale",
      "outputs": [],
      "stateMutability": "nonpayable",
      "type": "function"
    },
    {
      "inputs": [
        {
          "internalType": "address",
          "name": "",
          "type": "address"
        },
        {
          "internalType": "uint256",
          "name": "",
          "type": "uint256"
        },
        {
          "internalType": "address",
          "name": "",
          "type": "address"
        }
      ],
      "name": "saleType",
      "outputs": [
        {
          "internalType": "enum Exchange.SaleType",
          "name": "",
          "type": "uint8"
        }
      ],
      "stateMutability": "view",
      "type": "function"
    },
    {
      "inputs": [
        {
          "internalType": "address",
          "name": "_address",
          "type": "address"
        },
        {
          "internalType": "uint256",
          "name": "_id",
          "type": "uint256"
        }
      ],
      "name": "takeOffAuction",
      "outputs": [],
      "stateMutability": "nonpayable",
      "type": "function"
    },
    {
      "inputs": [
        {
          "internalType": "address",
          "name": "_tokenAddress",
          "type": "address"
        },
        {
          "internalType": "uint256",
          "name": "_amount",
          "type": "uint256"
        },
        {
          "internalType": "address",
          "name": "_creator",
          "type": "address"
        },
        {
          "internalType": "uint256",
          "name": "_minBid",
          "type": "uint256"
        },
        {
          "internalType": "uint256",
          "name": "_endTime",
          "type": "uint256"
        },
        {
          "internalType": "string",
          "name": "_uri",
          "type": "string"
        },
        {
          "internalType": "uint256",
          "name": "_auctionId",
          "type": "uint256"
        },
        {
          "internalType": "bytes",
          "name": "_signature",
          "type": "bytes"
        }
      ],
      "name": "takeOffAuctionLazy",
      "outputs": [],
      "stateMutability": "nonpayable",
      "type": "function"
    },
    {
      "inputs": [
        {
          "internalType": "address",
          "name": "_address",
          "type": "address"
        },
        {
          "internalType": "uint256",
          "name": "_id",
          "type": "uint256"
        }
      ],
      "name": "takeOffSale",
      "outputs": [],
      "stateMutability": "nonpayable",
      "type": "function"
    },
    {
      "inputs": [],
      "name": "withdraw",
      "outputs": [],
      "stateMutability": "nonpayable",
      "type": "function"
    }
  ],
  "bytecode": "0x60806040523480156200001157600080fd5b50604051620034ae380380620034ae83398101604081905262000034916200005d565b600555600480546001600160a01b0319166001600160a01b039290921691909117905562000099565b600080604083850312156200007157600080fd5b82516001600160a01b03811681146200008957600080fd5b6020939093015192949293505050565b61340580620000a96000396000f3fe60806040526004361061011f5760003560e01c80634ba71fac116100a0578063947234951161006457806394723495146103f7578063b3ffb76014610417578063b4c63a031461042a578063cff3170b1461043d578063fa14d4811461049557600080fd5b80634ba71fac1461032c578063525aa6bf146103795780635dc952c2146103b15780635e751000146103d1578063796e0b5a146103e457600080fd5b806312e28aa0116100e757806312e28aa0146101c25780633ab54026146101e25780633c0868f0146102805780633ccfd60b146102c0578063465e4337146102d557600080fd5b806301210b6b1461012457806301f25947146101465780630556f4f3146101665780630d6dacdf1461018f5780630fc7a169146101af575b600080fd5b34801561013057600080fd5b5061014461013f366004612c55565b6104c2565b005b34801561015257600080fd5b50610144610161366004612d8f565b61081d565b34801561017257600080fd5b5061017c60055481565b6040519081526020015b60405180910390f35b34801561019b57600080fd5b506101446101aa366004612e89565b610a83565b6101446101bd366004612cdf565b610dca565b3480156101ce57600080fd5b506101446101dd366004612c29565b6110a8565b3480156101ee57600080fd5b506102486101fd366004612c55565b6002602081815260009485526040808620825293855283852090529083529120805460018201549282015460038301546004909301549193926001600160a01b039091169160ff1685565b6040805195865260208601949094526001600160a01b039092169284019290925260608301919091521515608082015260a001610186565b34801561028c57600080fd5b506102b061029b366004612eef565b60076020526000908152604090205460ff1681565b6040519015158152602001610186565b3480156102cc57600080fd5b50610144611201565b3480156102e157600080fd5b506102486102f0366004612eef565b60066020526000908152604090208054600182015460028301546003840154600490940154929391926001600160a01b03909116919060ff1685565b34801561033857600080fd5b5061036c610347366004612c55565b6000602081815293815260408082208552928152828120909352825290205460ff1681565b6040516101869190613182565b34801561038557600080fd5b50600454610399906001600160a01b031681565b6040516001600160a01b039091168152602001610186565b3480156103bd57600080fd5b506101446103cc366004612e4e565b611293565b6101446103df366004612c55565b6114b2565b6101446103f2366004612d8f565b6117a6565b34801561040357600080fd5b50610144610412366004612c29565b611b6b565b610144610425366004612c97565b611bd7565b610144610438366004612d8f565b611f84565b34801561044957600080fd5b50610480610458366004612c55565b6001602081815260009485526040808620825293855283852090529083529120805491015482565b60408051928352602083019190915201610186565b3480156104a157600080fd5b5061017c6104b0366004612be8565b60036020526000908152604090205481565b8260016001600160a01b0380861660009081526020818152604080832088845282528083209387168352929052205460ff166001811115610505576105056133a4565b1461054e5760405162461bcd60e51b81526020600482015260146024820152732a37b5b2b7103737ba1034b71030bab1ba34b7b760611b60448201526064015b60405180910390fd5b6001600160a01b03808516600090815260026020908152604080832087845282528083209386168352929052206004015460ff161515600114156105c45760405162461bcd60e51b815260206004820152600d60248201526c105d58dd1a5bdb88195b991959609a1b6044820152606401610545565b6001600160a01b0384811660009081526002602090815260408083208784528252808320868516808552925291829020549151627eeac760e11b8152600481019190915260248101869052909183169062fdd58e9060440160206040518083038186803b15801561063457600080fd5b505afa158015610648573d6000803e3d6000fd5b505050506040513d601f19601f8201168201806040525081019061066c9190612f08565b10156106ba5760405162461bcd60e51b815260206004820152601e60248201527f53656c6c6572206e6f7420656e6f75676820746f6b656e20737570706c7900006044820152606401610545565b6001600160a01b03848116600090815260026020818152604080842088855282528084208786168552909152918290209081015490549151637921219560e11b81528484169363f242432a9361071a938893921691899190600401612f6c565b600060405180830381600087803b15801561073457600080fd5b505af1158015610748573d6000803e3d6000fd5b5050506001600160a01b03808616600090815260026020908152604080832088845282528083209387168352929052206001015461078c9150859085908590612296565b6001600160a01b038481166000908152600260208181526040808420888552825280842087861685529091529182902060048101805460ff191660019081179091559181015482820154915493517f9759a92d44539ecf2e83312d1217471b39e25befce832d6a43164de4c2ce67129561080f958b958b958b9590931693612fa4565b60405180910390a150505050565b60008a8a8a8a8a8a8a8a60405160200161083e9897969594939291906130fd565b60405160208183030381529060405280519060200120905061089983838080601f0160208091040260200160405190810160405280939291908181526020018383808284376000920191909152508592508d91506125229050565b6108b55760405162461bcd60e51b815260040161054590613190565b60008481526007602052604090205460ff1661090c5760405162461bcd60e51b8152602060048201526016602482015275105550d51253d397d113d154d7d393d517d1561254d560521b6044820152606401610545565b60008481526006602052604090206004015460ff16156109665760405162461bcd60e51b8152602060048201526015602482015274105550d51253d397d053149150511657d153911151605a1b6044820152606401610545565b600084815260066020908152604080832060018101546002909101546001600160a01b0316845260039092529091205461099f916125a1565b600360006006600088815260200190815260200160002060020160009054906101000a90046001600160a01b03166001600160a01b03166001600160a01b03168152602001908152602001600020819055507fbb37a0b8751bfed3e9c1dca6e57fc48dbc8c6607ec9df31095e1072ef2dc8ffa8b858b6006600089815260200190815260200160002060020160009054906101000a90046001600160a01b0316600660008a8152602001908152602001600020600101548f600080604051610a6e989796959493929190612fe8565b60405180910390a15050505050505050505050565b604051627eeac760e11b815233600482015260248101859052859085908590839082906001600160a01b0383169062fdd58e9060440160206040518083038186803b158015610ad157600080fd5b505afa158015610ae5573d6000803e3d6000fd5b505050506040513d601f19601f82011682018060405250810190610b099190612f08565b1015610b275760405162461bcd60e51b8152600401610545906131fc565b60405163e985e9c560e01b815233600482018190523060248301528a918a919083906001600160a01b0382169063e985e9c59060440160206040518083038186803b158015610b7557600080fd5b505afa158015610b89573d6000803e3d6000fd5b505050506040513d601f19601f82011682018060405250810190610bad9190612ecd565b610bc95760405162461bcd60e51b8152600401610545906131bb565b6001600160a01b038d1660009081526001602090815260408083208f8452825280832033845290915290205415610c3b5760405162461bcd60e51b8152602060048201526016602482015275546f6b656e20697320696e2066697865642073616c6560501b6044820152606401610545565b6001600160a01b038d166000908152602081815260408083208f84528252808320338452825291829020805460ff19166001908117909155825160a081019093528d835290820190610c8e908d906125b6565b815260200160006001600160a01b031681526020018a815260200160001515815250600260008f6001600160a01b03166001600160a01b0316815260200190815260200160002060008e81526020019081526020016000206000336001600160a01b03166001600160a01b03168152602001908152602001600020600082015181600001556020820151816001015560408201518160020160006101000a8154816001600160a01b0302191690836001600160a01b031602179055506060820151816003015560808201518160040160006101000a81548160ff0219169083151502179055509050507f374ad07874f8cd2d9da1821e3d0811f3f8a722b476a2926046365876ee5cb7fb8d8d338e8e60018f604051610db39796959493929190613032565b60405180910390a150505050505050505050505050565b6000898989898989604051602001610de79695949392919061307e565b604051602081830303815290604052805190602001209050610e4284848080601f0160208091040260200160405190810160405280939291908181526020018383808284376000920191909152508592508c91506125229050565b610e5e5760405162461bcd60e51b815260040161054590613190565b610e688288613358565b3414610eab5760405162461bcd60e51b8152602060048201526012602482015271494e53554646494349454e545f46554e445360701b6044820152606401610545565b6040516334fe2a8d60e11b81528a906000906001600160a01b038316906369fc551a90610ee2908d908f908d908d90600401613150565b602060405180830381600087803b158015610efc57600080fd5b505af1158015610f10573d6000803e3d6000fd5b505050506040513d601f19601f82011682018060405250810190610f349190612f08565b9050610f40848c613377565b6001600160a01b03808e16600090815260016020908152604080832086845282528083208f8516845290915290819020929092559051637921219560e11b81529083169063f242432a90610f9e908d90339086908a90600401612f6c565b600060405180830381600087803b158015610fb857600080fd5b505af1158015610fcc573d6000803e3d6000fd5b505050506000610ff3612710610fed600554346125c290919063ffffffff16565b906125ce565b6004546040519192506001600160a01b03169082156108fc029083906000818181858888f1935050505015801561102e573d6000803e3d6000fd5b506001600160a01b038b166108fc61104634846125b6565b6040518115909202916000818181858888f1935050505015801561106e573d6000803e3d6000fd5b507f15653aeaf314e9564b9ec17a9908d5b02cd3d7f3e44657084e30f11379e8afee8d838d888e33604051610db3969594939291906130c5565b6001600160a01b0382166000908152600260209081526040808320848452825280832033845290915290206004015460ff16156111205760405162461bcd60e51b815260206004820152601660248201527524ba32b69034b9903737ba1037b71030bab1ba34b7b760511b6044820152606401610545565b6001600160a01b0380831660009081526002602081815260408084208685528252808420338552825280842060048101805460ff191660019081179091558101549301549094168352600390529190205461117a916125a1565b6001600160a01b038084166000908152600260208181526040808420878552825280842033808652908352818520909301549094168352600390528282209390935590517f9759a92d44539ecf2e83312d1217471b39e25befce832d6a43164de4c2ce6712926111f592869286929190819081908190612fa4565b60405180910390a15050565b3360008181526003602052604080822054905181156108fc0292818181858888f19350505050158015611238573d6000803e3d6000fd5b5033600081815260036020908152604091829020548251938452908301527f7084f5476618d8e60b11ef0d7d3f06914655adb8793e28ff7f018d4c76d505d5910160405180910390a133600090815260036020526040812055565b604051627eeac760e11b815233600482015260248101849052849084908490839082906001600160a01b0383169062fdd58e9060440160206040518083038186803b1580156112e157600080fd5b505afa1580156112f5573d6000803e3d6000fd5b505050506040513d601f19601f820116820180604052508101906113199190612f08565b10156113375760405162461bcd60e51b8152600401610545906131fc565b60405163e985e9c560e01b81523360048201819052306024830152899189919083906001600160a01b0382169063e985e9c59060440160206040518083038186803b15801561138557600080fd5b505afa158015611399573d6000803e3d6000fd5b505050506040513d601f19601f820116820180604052508101906113bd9190612ecd565b6113d95760405162461bcd60e51b8152600401610545906131bb565b6001600160a01b038c1660009081526002602090815260408083208e8452825280832033845290915281206004015460ff16151560011480159061144757506001600160a01b038d1660009081526002602090815260408083208f8452825280832033845290915290205415155b905080156114975760405162461bcd60e51b815260206004820152601860248201527f546f6b656e20697320696e2061756374696f6e2073616c6500000000000000006044820152606401610545565b6114a38d8d8d8d6125da565b50505050505050505050505050565b60016001600160a01b0380851660009081526020818152604080832087845282528083209386168352929052205460ff1660018111156114f4576114f46133a4565b146115385760405162461bcd60e51b81526020600482015260146024820152732a37b5b2b7103737ba1034b71030bab1ba34b7b760611b6044820152606401610545565b6001600160a01b03808416600090815260026020908152604080832086845282528083209385168352929052206004015460ff161515600114156115ae5760405162461bcd60e51b815260206004820152600d60248201526c105d58dd1a5bdb88195b991959609a1b6044820152606401610545565b6001600160a01b0380841660009081526002602090815260408083208684528252808320938516835292905220600301544211156116205760405162461bcd60e51b815260206004820152600f60248201526e105d58dd1a5bdb88195e1c1a5c9959608a1b6044820152606401610545565b6001600160a01b038084166000908152600260209081526040808320868452825280832093851683529290522060010154341161169f5760405162461bcd60e51b815260206004820152601d60248201527f546865726520616c7265616479206973206120686967686572206269640000006044820152606401610545565b6001600160a01b0380841660009081526002602081815260408084208785528252808420868616855282528084206001810154930154909416835260039052919020546116eb916125a1565b6001600160a01b03848116600081815260026020818152604080842089855282528084208887168086528184528286209485018054909816865260038452828620989098553460019094018490559387905292815284546001600160a01b031916339081179095558251938452830187905290820193909352606081019190915260808101919091527f7aaaf9649d5f33a41e6d052db876b6253e362d6e6ff1317c04a67695b85845719060a00160405180910390a1505050565b60008a8a8a8a8a8a8a8a6040516020016117c79897969594939291906130fd565b60405160208183030381529060405280519060200120905061182283838080601f0160208091040260200160405190810160405280939291908181526020018383808284376000920191909152508592508d91506125229050565b61183e5760405162461bcd60e51b815260040161054590613190565b60008481526007602052604090205460ff166118955760405162461bcd60e51b8152602060048201526016602482015275105550d51253d397d113d154d7d393d517d1561254d560521b6044820152606401610545565b60008481526006602052604090206004015460ff16156118ef5760405162461bcd60e51b8152602060048201526015602482015274105550d51253d397d053149150511657d153911151605a1b6044820152606401610545565b60008b90506000816001600160a01b03166369fc551a8c8e8b8b6040518563ffffffff1660e01b81526004016119289493929190613150565b602060405180830381600087803b15801561194257600080fd5b505af1158015611956573d6000803e3d6000fd5b505050506040513d601f19601f8201168201806040525081019061197a9190612f08565b9050816001600160a01b031663f242432a8c600660008a815260200190815260200160002060020160009054906101000a90046001600160a01b031684600660008c8152602001908152602001600020600001546040518563ffffffff1660e01b81526004016119ed9493929190612f6c565b600060405180830381600087803b158015611a0757600080fd5b505af1158015611a1b573d6000803e3d6000fd5b505050600087815260066020526040812060048101805460ff191660019081179091550154600554909250611a599061271090610fed9085906125c2565b6004546040519192506001600160a01b03169082156108fc029083906000818181858888f19350505050158015611a94573d6000803e3d6000fd5b506001600160a01b038d166108fc611aac84846125b6565b6040518115909202916000818181858888f19350505050158015611ad4573d6000803e3d6000fd5b507fbb37a0b8751bfed3e9c1dca6e57fc48dbc8c6607ec9df31095e1072ef2dc8ffa8f848f600660008d815260200190815260200160002060020160009054906101000a90046001600160a01b031686600660008f81526020019081526020016000206000015460018a604051611b52989796959493929190612fe8565b60405180910390a1505050505050505050505050505050565b6001600160a01b038216600090815260016020818152604080842085855282528084203380865292528084208481559092015491517f374ad07874f8cd2d9da1821e3d0811f3f8a722b476a2926046365876ee5cb7fb936111f593879387939092919082908190613032565b8360006001600160a01b0380871660009081526020818152604080832089845282528083209388168352929052205460ff166001811115611c1a57611c1a6133a4565b14611c605760405162461bcd60e51b815260206004820152601660248201527514d85b19481d1e5c19481a5cc81b9bdd08199a5e195960521b6044820152606401610545565b6001600160a01b038086166000908152600160209081526040808320888452825280832093871683529290522054821115611cdd5760405162461bcd60e51b815260206004820152601860248201527f4e6f7420656e6f756768206974656d7320696e2073616c6500000000000000006044820152606401610545565b6001600160a01b0380861660009081526001602081815260408084208985528252808420948816845293905291902001543490611d1a90846125c2565b14611d675760405162461bcd60e51b815260206004820152601760248201527f4e6f7420656e6f7567682066756e6420746f2073656e640000000000000000006044820152606401610545565b604051627eeac760e11b81526001600160a01b0384811660048301526024820186905283919083169062fdd58e9060440160206040518083038186803b158015611db057600080fd5b505afa158015611dc4573d6000803e3d6000fd5b505050506040513d601f19601f82011682018060405250810190611de89190612f08565b1015611e365760405162461bcd60e51b815260206004820152601e60248201527f53656c6c6572206e6f7420656e6f75676820746f6b656e20737570706c7900006044820152606401610545565b604051637921219560e11b81526001600160a01b0382169063f242432a90611e68908690339089908890600401612f6c565b600060405180830381600087803b158015611e8257600080fd5b505af1158015611e96573d6000803e3d6000fd5b5050506001600160a01b038087166000908152600160209081526040808320898452825280832093881683529290522054611ed29150836125b6565b6001600160a01b038087166000908152600160209081526040808320898452825280832093881683529290522055611f0c85858534612296565b6001600160a01b0380861660009081526001602081815260408084208985528252808420948816845293905290829020015490517f15653aeaf314e9564b9ec17a9908d5b02cd3d7f3e44657084e30f11379e8afee91611f7591889188918891889133906130c5565b60405180910390a15050505050565b60008a8a8a8a8a8a8a8a604051602001611fa59897969594939291906130fd565b60405160208183030381529060405280519060200120905061200083838080601f0160208091040260200160405190810160405280939291908181526020018383808284376000920191909152508592508d91506125229050565b61201c5760405162461bcd60e51b815260040161054590613190565b873410156120615760405162461bcd60e51b8152602060048201526012602482015271494e53554646494349454e545f46554e445360701b6044820152606401610545565b864211156120a35760405162461bcd60e51b815260206004820152600f60248201526e105550d51253d397d1561412549151608a1b6044820152606401610545565b60008481526007602052604090205460ff166121595760008481526007602090815260408083208054600160ff199182168117909255825160a0810184528f81523481860190815233828601908152606083018f8152608084018981528d8a5260069098529590972091518255519281019290925593516002820180546001600160a01b0319166001600160a01b039092169190911790559051600382015590516004909101805490921690151517905561223f565b60008481526006602052604090206001015434116121b95760405162461bcd60e51b815260206004820152601d60248201527f546865726520616c7265616479206973206120686967686572206269640000006044820152606401610545565b600084815260066020908152604080832060018101546002909101546001600160a01b031684526003909252909120546121f2916125a1565b60008581526006602081815260408084206002810180546001600160a01b03168652600384529185209590955592889052523460019092019190915580546001600160a01b031916331790555b604080516001600160a01b03808e168252602082018790528b16918101919091523360608201523460808201527fb852e89172c753bc4372f8aa2577a8a1996c09c516a4e9f50b297ba3baceede99060a001610a6e565b604051636a4731c560e11b81526004810184905284906000906001600160a01b0383169063d48e638a9060240160206040518083038186803b1580156122db57600080fd5b505afa1580156122ef573d6000803e3d6000fd5b505050506040513d601f19601f820116820180604052508101906123139190612c0c565b9050826001600160a01b0382161561247b57604051631af9cf4960e01b8152600481018790526000906001600160a01b03851690631af9cf499060240160206040518083038186803b15801561236857600080fd5b505afa15801561237c573d6000803e3d6000fd5b505050506040513d601f19601f820116820180604052508101906123a09190612f08565b90506000846001600160a01b03166334ce10c46040518163ffffffff1660e01b815260040160206040518083038186803b1580156123dd57600080fd5b505afa1580156123f1573d6000803e3d6000fd5b505050506040513d601f19601f820116820180604052508101906124159190612f08565b905060006124316124278360646132b0565b610fed89866125c2565b6040519091506001600160a01b0386169082156108fc029083906000818181858888f1935050505015801561246a573d6000803e3d6000fd5b5061247584826125b6565b93505050505b6000612498612710610fed600554886125c290919063ffffffff16565b6004546040519192506001600160a01b03169082156108fc029083906000818181858888f193505050501580156124d3573d6000803e3d6000fd5b506124de82826125b6565b6040519092506001600160a01b0387169083156108fc029084906000818181858888f19350505050158015612517573d6000803e3d6000fd5b505050505050505050565b6000816001600160a01b031661258f85612589866040517f19457468657265756d205369676e6564204d6573736167653a0a3332000000006020820152603c8101829052600090605c01604051602081830303815290604052805190602001209050919050565b9061282e565b6001600160a01b031614949350505050565b60006125ad8284613233565b90505b92915050565b60006125ad8284613377565b60006125ad8284613358565b60006125ad828461324b565b604051627eeac760e11b815233600482015260248101849052849084908490839082906001600160a01b0383169062fdd58e9060440160206040518083038186803b15801561262857600080fd5b505afa15801561263c573d6000803e3d6000fd5b505050506040513d601f19601f820116820180604052508101906126609190612f08565b101561267e5760405162461bcd60e51b8152600401610545906131fc565b60405163e985e9c560e01b81523360048201819052306024830152899189919083906001600160a01b0382169063e985e9c59060440160206040518083038186803b1580156126cc57600080fd5b505afa1580156126e0573d6000803e3d6000fd5b505050506040513d601f19601f820116820180604052508101906127049190612ecd565b6127205760405162461bcd60e51b8152600401610545906131bb565b6001600160a01b038c166000908152602081815260408083208e845282528083203384529091528120805460ff1916600183021790555060405180604001604052808b81526020018a815250600160008e6001600160a01b03166001600160a01b0316815260200190815260200160002060008d81526020019081526020016000206000336001600160a01b03166001600160a01b0316815260200190815260200160002060008201518160000155602082015181600101559050507f374ad07874f8cd2d9da1821e3d0811f3f8a722b476a2926046365876ee5cb7fb8c8c338d8d6000806040516128189796959493929190613032565b60405180910390a1505050505050505050505050565b600080600061283d8585612852565b9150915061284a816128c2565b509392505050565b6000808251604114156128895760208301516040840151606085015160001a61287d87828585612a80565b945094505050506128bb565b8251604014156128b357602083015160408401516128a8868383612b6d565b9350935050506128bb565b506000905060025b9250929050565b60008160048111156128d6576128d66133a4565b14156128df5750565b60018160048111156128f3576128f36133a4565b14156129415760405162461bcd60e51b815260206004820152601860248201527f45434453413a20696e76616c6964207369676e617475726500000000000000006044820152606401610545565b6002816004811115612955576129556133a4565b14156129a35760405162461bcd60e51b815260206004820152601f60248201527f45434453413a20696e76616c6964207369676e6174757265206c656e677468006044820152606401610545565b60038160048111156129b7576129b76133a4565b1415612a105760405162461bcd60e51b815260206004820152602260248201527f45434453413a20696e76616c6964207369676e6174757265202773272076616c604482015261756560f01b6064820152608401610545565b6004816004811115612a2457612a246133a4565b1415612a7d5760405162461bcd60e51b815260206004820152602260248201527f45434453413a20696e76616c6964207369676e6174757265202776272076616c604482015261756560f01b6064820152608401610545565b50565b6000807f7fffffffffffffffffffffffffffffff5d576e7357a4501ddfe92f46681b20a0831115612ab75750600090506003612b64565b8460ff16601b14158015612acf57508460ff16601c14155b15612ae05750600090506004612b64565b6040805160008082526020820180845289905260ff881692820192909252606081018690526080810185905260019060a0016020604051602081039080840390855afa158015612b34573d6000803e3d6000fd5b5050604051601f1901519150506001600160a01b038116612b5d57600060019250925050612b64565b9150600090505b94509492505050565b6000806001600160ff1b03831681612b8a60ff86901c601b613233565b9050612b9887828885612a80565b935093505050935093915050565b60008083601f840112612bb857600080fd5b50813567ffffffffffffffff811115612bd057600080fd5b6020830191508360208285010111156128bb57600080fd5b600060208284031215612bfa57600080fd5b8135612c05816133ba565b9392505050565b600060208284031215612c1e57600080fd5b8151612c05816133ba565b60008060408385031215612c3c57600080fd5b8235612c47816133ba565b946020939093013593505050565b600080600060608486031215612c6a57600080fd5b8335612c75816133ba565b9250602084013591506040840135612c8c816133ba565b809150509250925092565b60008060008060808587031215612cad57600080fd5b8435612cb8816133ba565b9350602085013592506040850135612ccf816133ba565b9396929550929360600135925050565b600080600080600080600080600060e08a8c031215612cfd57600080fd5b8935612d08816133ba565b985060208a0135975060408a0135612d1f816133ba565b965060608a0135955060808a013567ffffffffffffffff80821115612d4357600080fd5b612d4f8d838e01612ba6565b909750955060a08c0135915080821115612d6857600080fd5b50612d758c828d01612ba6565b9a9d999c50979a9699959894979660c00135949350505050565b6000806000806000806000806000806101008b8d031215612daf57600080fd5b8a35612dba816133ba565b995060208b0135985060408b0135612dd1816133ba565b975060608b0135965060808b0135955060a08b013567ffffffffffffffff80821115612dfc57600080fd5b612e088e838f01612ba6565b909750955060c08d0135945060e08d0135915080821115612e2857600080fd5b50612e358d828e01612ba6565b915080935050809150509295989b9194979a5092959850565b60008060008060808587031215612e6457600080fd5b8435612e6f816133ba565b966020860135965060408601359560600135945092505050565b600080600080600060a08688031215612ea157600080fd5b8535612eac816133ba565b97602087013597506040870135966060810135965060800135945092505050565b600060208284031215612edf57600080fd5b81518015158114612c0557600080fd5b600060208284031215612f0157600080fd5b5035919050565b600060208284031215612f1a57600080fd5b5051919050565b60028110612f3f57634e487b7160e01b600052602160045260246000fd5b9052565b81835281816020850137506000828201602090810191909152601f909101601f19169091010190565b6001600160a01b0394851681529290931660208301526040820152606081019190915260a06080820181905260009082015260c00190565b6001600160a01b03978816815260208101969096529386166040860152919094166060840152608083019390935260a082019290925290151560c082015260e00190565b6001600160a01b03988916815260208101979097529487166040870152929095166060850152608084015260a083019390935291151560c082015260e08101919091526101000190565b6001600160a01b0388811682526020820188905286166040820152606081018590526080810184905260e0810161306c60a0830185612f21565b8260c083015298975050505050505050565b6001600160a01b03878116825260208201879052851660408201526060810184905260a0608082018190526000906130b99083018486612f43565b98975050505050505050565b6001600160a01b039687168152602081019590955292851660408501526060840191909152608083015290911660a082015260c00190565b600060018060a01b03808b16835289602084015280891660408401525086606083015285608083015260e060a083015261313b60e083018587612f43565b90508260c08301529998505050505050505050565b60018060a01b0385168152836020820152606060408201526000613178606083018486612f43565b9695505050505050565b602081016125b08284612f21565b602080825260119082015270494e56414c49445f5349474e415455524560781b604082015260600190565b60208082526021908201527f4d61726b6574206e6f74206861766520617070726f76616c206f6620746f6b656040820152603760f91b606082015260800190565b60208082526017908201527f4e6f7420656e6f75676820746f6b656e20737570706c79000000000000000000604082015260600190565b600082198211156132465761324661338e565b500190565b60008261326857634e487b7160e01b600052601260045260246000fd5b500490565b600181815b808511156132a857816000190482111561328e5761328e61338e565b8085161561329b57918102915b93841c9390800290613272565b509250929050565b60006125ad83836000826132c6575060016125b0565b816132d3575060006125b0565b81600181146132e957600281146132f35761330f565b60019150506125b0565b60ff8411156133045761330461338e565b50506001821b6125b0565b5060208310610133831016604e8410600b8410161715613332575081810a6125b0565b61333c838361326d565b80600019048211156133505761335061338e565b029392505050565b60008160001904831182151516156133725761337261338e565b500290565b6000828210156133895761338961338e565b500390565b634e487b7160e01b600052601160045260246000fd5b634e487b7160e01b600052602160045260246000fd5b6001600160a01b0381168114612a7d57600080fdfea264697066735822122084e0fb2868e7827e65acee4facd7629482a7f6072aa71a5e71e326a6e995984c64736f6c63430008070033",
  "linkReferences": {},
  "deployedLinkReferences": {}
}